:100000000C942A000C943C000C943C000C943C0092
:100010000C943C000C943C000C943C000C943C0070
:100020000C943C000C943C000C943C000C94E900B3
:100030000C943C000C943C000C943C000C943C0050
:100040000C943C000C943C000C943C000C94220159
:100050000C943C0011241FBECFE5D4E0DEBFCDBF21
:1000600010E0A0E6B0E001C01D92AF3AB107E1F7A1
:100070000E9442000C94B5020C9400005D9BFECFE0
:100080008CB908959FEF9ABB1BBA8FE187BB18BA52
:1000900094BB15BA8CEF81BB12BA81E083BF82E0BA
:1000A00089BF80E88CBF88E98AB983E089B97894F0
:1000B00010926100109279001092910010926200EB
:1000C00010927A00109292001092630010927B00BE
:1000D000109293001092640010927C001092940091
:1000E0001092650010927D001092950010926600AB
:1000F00010927E00109296001092670010927F007E
:100100001092970010926800109280001092980050
:1001100010926900109281001092990010926A006A
:100120001092820010929A0010926B00109283003D
:1001300010929B0010926C001092840010929C0010
:1001400010926D001092850010929D0010926E002A
:100150001092860010929E0010926F0010928700FD
:1001600010929F0010927000109288001092A000D0
:1001700010927100109289001092A10010927200EA
:1001800010928A001092A2001092730010928B00BD
:100190001092A3001092740010928C001092A40090
:1001A0001092750010928D001092A50010927600AA
:1001B00010928E001092A6001092770010928F007D
:1001C0001092A70010927800109290001092A80050
:1001D000FFCF1F920F920FB60F9211242F933F93D0
:1001E0004F938F939F93EF93FF93E091AA00E09337
:1001F000A9004091AB004093AA003091AC0030932D
:10020000AB002091AD002093AC008091AE008093B4
:10021000AD009CB19093AE008A3A41F49A3A31F421
:10022000F0E0EF59FF4F4083308F20ABFF91EF910B
:100230009F918F914F913F912F910F900FBE0F90F3
:100240001F9018951F920F920FB60F9211248F9343
:100250009F93809160008F5F809360008F3F11F4C7
:10026000109260009091600080916200981708F4ED
:10027000D89A80919200981708F4D99A80917B00BF
:10028000981708F4DA9A80916300981708F4DB9ABB
:1002900080919300981708F4DC9A80917C0098175D
:1002A00008F4DD9A80916400981708F4DE9A809132
:1002B0009400981708F4DF9A80916B00981708F45F
:1002C000A89A80918300981708F4A99A80919A00BF
:1002D000981708F4AA9A80916A00981708F4AB9AC4
:1002E00080918200981708F4AC9A80919900981731
:1002F00008F4AD9A80916900981708F4AE9A80913D
:100300008100981708F4AF9A80917300981708F449
:10031000C09A80918B00981708F4C19A8091A2002E
:10032000981708F4C29A80917200981708F4939A6B
:1003300080918A00981708F4949A8091A1009817E8
:1003400008F4959A80917100981708F4969A809114
:100350008900981708F4979AC39AC3981BBA18BAD9
:1003600015BA12BA80919700981708F4D89A80911C
:100370008000981708F4D99A80916800981708F4BB
:10038000DA9A80919800981708F4DB9A80917900A6
:10039000981708F4DC9A80916100981708F4DD9AA8
:1003A00080919100981708F4DE9A80917A0098174E
:1003B00008F4DF9A80918600981708F4A89A809133
:1003C0009D00981708F4A99A80916D00981708F479
:1003D000AA9A80918500981708F4AB9A80919C00A6
:1003E000981708F4AC9A80916C00981708F4AD9AAD
:1003F00080918400981708F4AE9A80919B0098171A
:1004000008F4AF9A80918E00981708F4C09A8091F2
:10041000A500981708F4C19A80917500981708F400
:10042000C29A80918D00981708F4939A8091A40045
:10043000981708F4949A80917400981708F4959A84
:1004400080918C00981708F4969A8091A3009817D1
:1004500008F4979AC49AC4981BBA18BA15BA12BA73
:1004600080917D00981708F4D89A809165009817BC
:1004700008F4D99A80919500981708F4DA9A809137
:100480007E00981708F4DB9A80916600981708F4AC
:10049000DC9A80919600981708F4DD9A80917F008D
:1004A000981708F4DE9A80916700981708F4DF9A8D
:1004B0008091A000981708F4A89A8091700098176E
:1004C00008F4A99A80918800981708F4AA9A809154
:1004D0009F00981708F4AB9A80916F00981708F462
:1004E000AC9A80918700981708F4AD9A80919E008D
:1004F000981708F4AE9A80916E00981708F4AF9A96
:100500008091A800981708F4C09A809178009817F5
:1005100008F4C19A80919000981708F4C29A8091CB
:10052000A700981708F4939A80917700981708F419
:10053000949A80918F00981708F4959A8091A6005C
:10054000981708F4969A80917600981708F4979A6D
:10055000929A92981BBA18BA15BA12BA9F918F91B3
:0E0560000F900FBE0F901F901895F894FFCFCC
:00000001FF
